{
  "contractName": "MedProduct",
  "abi": [
    {
      "constant": true,
      "inputs": [
        {
          "name": "",
          "type": "uint256"
        }
      ],
      "name": "medProd",
      "outputs": [
        {
          "name": "medId",
          "type": "uint256"
        },
        {
          "name": "manuDate",
          "type": "string"
        },
        {
          "name": "medName",
          "type": "string"
        },
        {
          "name": "expiry",
          "type": "string"
        },
        {
          "name": "mrp",
          "type": "string"
        },
        {
          "name": "numRetail",
          "type": "uint256"
        },
        {
          "name": "manufacturer",
          "type": "address"
        }
      ],
      "payable": false,
      "stateMutability": "view",
      "type": "function",
      "signature": "0x148f7731"
    },
    {
      "anonymous": false,
      "inputs": [
        {
          "indexed": false,
          "name": "meds",
          "type": "uint256"
        }
      ],
      "name": "TaskCreated",
      "type": "event",
      "signature": "0xba46948ae716559226cede7aac0175e8ddd11b7cb3ea0369c9f218ef908b87d5"
    },
    {
      "constant": false,
      "inputs": [
        {
          "name": "_medName",
          "type": "string"
        },
        {
          "name": "_mrp",
          "type": "string"
        },
        {
          "name": "_expiry",
          "type": "string"
        },
        {
          "name": "_manuDate",
          "type": "string"
        }
      ],
      "name": "newMed",
      "outputs": [],
      "payable": false,
      "stateMutability": "nonpayable",
      "type": "function",
      "signature": "0x35f5a4b5"
    },
    {
      "constant": false,
      "inputs": [
        {
          "name": "_medId",
          "type": "uint256"
        },
        {
          "name": "_date",
          "type": "string"
        },
        {
          "name": "_loc",
          "type": "string"
        },
        {
          "name": "_name",
          "type": "string"
        }
      ],
      "name": "addret",
      "outputs": [
        {
          "name": "",
          "type": "string"
        }
      ],
      "payable": false,
      "stateMutability": "nonpayable",
      "type": "function",
      "signature": "0xa72c2ff0"
    },
    {
      "constant": true,
      "inputs": [
        {
          "name": "_medId",
          "type": "uint256"
        }
      ],
      "name": "medInfo",
      "outputs": [
        {
          "name": "",
          "type": "string"
        }
      ],
      "payable": false,
      "stateMutability": "view",
      "type": "function",
      "signature": "0x18f1bd30"
    }
  ],
  "bytecode": "0x608060405261303960015534801561001657600080fd5b506113cf806100266000396000f3fe6080604052600436106100615763ffffffff7c0100000000000000000000000000000000000000000000000000000000600035041663148f7731811461006657806318f1bd301461027b57806335f5a4b51461031a578063a72c2ff014610564575b600080fd5b34801561007257600080fd5b506100906004803603602081101561008957600080fd5b503561072c565b60405180888152602001806020018060200180602001806020018781526020018673ffffffffffffffffffffffffffffffffffffffff1673ffffffffffffffffffffffffffffffffffffffff16815260200185810385528b818151815260200191508051906020019080838360005b838110156101175781810151838201526020016100ff565b50505050905090810190601f1680156101445780820380516001836020036101000a031916815260200191505b5085810384528a5181528a516020918201918c019080838360005b8381101561017757818101518382015260200161015f565b50505050905090810190601f1680156101a45780820380516001836020036101000a031916815260200191505b5085810383528951815289516020918201918b019080838360005b838110156101d75781810151838201526020016101bf565b50505050905090810190601f1680156102045780820380516001836020036101000a031916815260200191505b5085810382528851815288516020918201918a019080838360005b8381101561023757818101518382015260200161021f565b50505050905090810190601f1680156102645780820380516001836020036101000a031916815260200191505b509b50505050505050505050505060405180910390f35b34801561028757600080fd5b506102a56004803603602081101561029e57600080fd5b50356109a5565b6040805160208082528351818301528351919283929083019185019080838360005b838110156102df5781810151838201526020016102c7565b50505050905090810190601f16801561030c5780820380516001836020036101000a031916815260200191505b509250505060405180910390f35b34801561032657600080fd5b506105626004803603608081101561033d57600080fd5b81019060208101813564010000000081111561035857600080fd5b82018360208201111561036a57600080fd5b8035906020019184600183028401116401000000008311171561038c57600080fd5b91908080601f01602080910402602001604051908101604052809392919081815260200183838082843760009201919091525092959493602081019350359150506401000000008111156103df57600080fd5b8201836020820111156103f157600080fd5b8035906020019184600183028401116401000000008311171561041357600080fd5b91908080601f016020809104026020016040519081016040528093929190818152602001838380828437600092019190915250929594936020810193503591505064010000000081111561046657600080fd5b82018360208201111561047857600080fd5b8035906020019184600183028401116401000000008311171561049a57600080fd5b91908080601f01602080910402602001604051908101604052809392919081815260200183838082843760009201919091525092959493602081019350359150506401000000008111156104ed57600080fd5b8201836020820111156104ff57600080fd5b8035906020019184600183028401116401000000008311171561052157600080fd5b91908080601f016020809104026020016040519081016040528093929190818152602001838380828437600092019190915250929550610eac945050505050565b005b34801561057057600080fd5b506102a56004803603608081101561058757600080fd5b813591908101906040810160208201356401000000008111156105a957600080fd5b8201836020820111156105bb57600080fd5b803590602001918460018302840111640100000000831117156105dd57600080fd5b91908080601f016020809104026020016040519081016040528093929190818152602001838380828437600092019190915250929594936020810193503591505064010000000081111561063057600080fd5b82018360208201111561064257600080fd5b8035906020019184600183028401116401000000008311171561066457600080fd5b91908080601f01602080910402602001604051908101604052809392919081815260200183838082843760009201919091525092959493602081019350359150506401000000008111156106b757600080fd5b8201836020820111156106c957600080fd5b803590602001918460018302840111640100000000831117156106eb57600080fd5b91908080601f016020809104026020016040519081016040528093929190818152602001838380828437600092019190915250929550610f8e945050505050565b600060208181529181526040908190208054600180830180548551600293821615610100026000190190911692909204601f81018790048702830187019095528482529194929390928301828280156107c65780601f1061079b576101008083540402835291602001916107c6565b820191906000526020600020905b8154815290600101906020018083116107a957829003601f168201915b50505060028085018054604080516020601f60001961010060018716150201909416959095049283018590048502810185019091528181529596959450909250908301828280156108585780601f1061082d57610100808354040283529160200191610858565b820191906000526020600020905b81548152906001019060200180831161083b57829003601f168201915b5050505060038301805460408051602060026001851615610100026000190190941693909304601f81018490048402820184019092528181529495949350908301828280156108e85780601f106108bd576101008083540402835291602001916108e8565b820191906000526020600020905b8154815290600101906020018083116108cb57829003601f168201915b5050505060048301805460408051602060026001851615610100026000190190941693909304601f81018490048402820184019092528181529495949350908301828280156109785780601f1061094d57610100808354040283529160200191610978565b820191906000526020600020905b81548152906001019060200180831161095b57829003601f168201915b50505050600583015460079093015491929173ffffffffffffffffffffffffffffffffffffffff16905087565b604080518082018252600f81527f4d65646963696e65206e616d653a20000000000000000000000000000000000060208083019190915260008481528082528390206002908101805485516001821615610100026000190190911692909204601f8101849004840283018401909552848252606094610a7e938593929190830182828015610a745780601f10610a4957610100808354040283529160200191610a74565b820191906000526020600020905b815481529060010190602001808311610a5757829003601f168201915b505050505061118f565b9050610aa68160408051908101604052806001815260200160f960020a60050281525061118f565b9050610ae7816040805190810160405280600581526020017f4d52503a2000000000000000000000000000000000000000000000000000000081525061118f565b6000848152602081815260409182902060040180548351601f60026000196101006001861615020190931692909204918201849004840281018401909452808452939450610b5893859392830182828015610a745780601f10610a4957610100808354040283529160200191610a74565b9050610b808160408051908101604052806001815260200160f960020a60050281525061118f565b9050610bc1816040805190810160405280601281526020017f4d616e756661637475726520446174653a20000000000000000000000000000081525061118f565b9050610c45816000808681526020019081526020016000206001018054600181600116156101000203166002900480601f016020809104026020016040519081016040528092919081815260200182805460018160011615610100020316600290048015610a745780601f10610a4957610100808354040283529160200191610a74565b9050610c6d8160408051908101604052806001815260200160f960020a60050281525061118f565b9050610cae816040805190810160405280600881526020017f4578706972793a2000000000000000000000000000000000000000000000000081525061118f565b6000848152602081815260409182902060030180548351601f60026000196101006001861615020190931692909204918201849004840281018401909452808452939450610d1f93859392830182828015610a745780601f10610a4957610100808354040283529160200191610a74565b9050610d478160408051908101604052806001815260200160f960020a60050281525061118f565b9050610d6f8160408051908101604052806001815260200160f960020a60050281525061118f565b9050610db0816040805190810160405280601381526020017f52657461696c6572732044657461696c73200a0000000000000000000000000081525061118f565b905060005b600084815260208190526040902060050154811015610ea557610df48260408051908101604052806001815260200160f960020a60050281525061118f565b9150610e1c8260408051908101604052806001815260200160f960020a60050281525061118f565b6000858152602081815260408083208584526006018252918290206002908101805484516001821615610100026000190190911692909204601f8101849004840283018401909452838252939550610e9b9386939192909190830182828015610a745780601f10610a4957610100808354040283529160200191610a74565b9150600101610db5565b5092915050565b600180546000818152602081815260409091209182558351610ed6939290920191908401906112d0565b506001546000908152602081815260409091208551610efd926002909201918701906112d0565b506001546000908152602081815260409091208451610f24926004909201918601906112d0565b506001546000908152602081815260409091208351610f4b926003909201918501906112d0565b506001805480820190915560408051918252517fba46948ae716559226cede7aac0175e8ddd11b7cb3ea0369c9f218ef908b87d59181900360200190a150505050565b60408051808201909152600681527f444154453a2000000000000000000000000000000000000000000000000000006020820152606090610fcf818661118f565b9050610ff78160408051908101604052806001815260200160f960020a60050281525061118f565b60408051808201909152600a81527f4c4f434154494f4e3a20000000000000000000000000000000000000000000006020820152909150611038828261118f565b9150611044828661118f565b915061106c8260408051908101604052806001815260200160f960020a60050281525061118f565b60408051808201909152600681527f4e414d453a20000000000000000000000000000000000000000000000000000060208201529092506110ad838261118f565b92506110b9838661118f565b92506110c361134e565b5060408051606081018252338152602080820188815282840187905260008c8152808352848120600581015482526006018352939093208251815473ffffffffffffffffffffffffffffffffffffffff191673ffffffffffffffffffffffffffffffffffffffff9091161781559251805192938493909261114b9260018501929101906112d0565b50604082015180516111679160028401916020909101906112d0565b5050506000988952505050602086905260409095206005018054600101905550929392505050565b6060808390506060839050606081518351016040519080825280601f01601f1916602001820160405280156111cb576020820181803883390190505b509050806000805b85518110156112495785818151811015156111ea57fe5b90602001015160f860020a900460f860020a02838380600101945081518110151561121157fe5b9060200101907effffffffffffffffffffffffffffffffffffffffffffffffffffffffffffff1916908160001a9053506001016111d3565b5060005b84518110156112c357848181518110151561126457fe5b90602001015160f860020a900460f860020a02838380600101945081518110151561128b57fe5b9060200101907effffffffffffffffffffffffffffffffffffffffffffffffffffffffffffff1916908160001a90535060010161124d565b5090979650505050505050565b828054600181600116156101000203166002900490600052602060002090601f016020900481019282601f1061131157805160ff191683800117855561133e565b8280016001018555821561133e579182015b8281111561133e578251825591602001919060010190611323565b5061134a929150611386565b5090565b606060405190810160405280600073ffffffffffffffffffffffffffffffffffffffff16815260200160608152602001606081525090565b6113a091905b8082111561134a576000815560010161138c565b9056fea165627a7a723058208793aecac20f0febfe604e4e5ae692ea1e7c2658dd0f32475ec6e5b47c5aa5c50029",
  "source": "// SPDX-License-Identifier: MIT\r\npragma solidity >=0.4.22 <0.9.0;\r\ncontract MedProduct {\r\n  struct ret\r\n    {\r\n        address retId;\r\n        string name;\r\n        string medDesc;\r\n    }\r\n    struct medicine \r\n    {\r\n        uint256 medId;\r\n        string manuDate;\r\n        string medName;\r\n        string expiry;\r\n        string mrp;\r\n        uint256 numRetail;\r\n        mapping(uint256=>ret) del;\r\n        address manufacturer;\r\n    }\r\n    event TaskCreated(\r\n        uint256 meds\r\n    );\r\n    mapping(uint256=>medicine) public medProd;\r\n    uint256 meds= 12345;\r\n    function newMed(string memory _medName,string memory _mrp,string memory _expiry,string memory _manuDate) public \r\n    {\r\n        medProd[meds].medId=meds;\r\n        medProd[meds].manuDate=_manuDate;\r\n        medProd[meds].medName=_medName;\r\n        medProd[meds].mrp=_mrp;\r\n        medProd[meds].expiry= _expiry;\r\n        \r\n        meds++;\r\n        emit TaskCreated(meds-1);\r\n    }\r\n    function concatenate(string memory _a,string memory _b) pure internal returns(string memory)\r\n    {\r\n        bytes memory a=bytes(_a);\r\n        bytes memory b=bytes(_b);\r\n        string memory ab=new string(a.length+b.length);\r\n        bytes memory c=bytes(ab);\r\n        uint256 k=0;\r\n        for(uint256 i=0;i<a.length;i++)c[k++]=a[i];\r\n        for(uint256 i=0;i<b.length;i++)c[k++]=b[i];\r\n        return string(c);\r\n    }\r\n    function addret(uint256 _medId,string memory _date,string memory _loc,string memory _name) public returns(string memory)\r\n    {\r\n        string memory description=\"DATE: \";\r\n        description=concatenate(description,_date);\r\n        description=concatenate(description,\"\\n\");\r\n        string memory location=\"LOCATION: \";\r\n        description=concatenate(description,location);\r\n        description=concatenate(description,_loc);\r\n        description=concatenate(description,\"\\n\");\r\n        string memory name=\"NAME: \";\r\n        description=concatenate(description,name);\r\n        description=concatenate(description,_name);\r\n        ret memory newRetail=ret({retId:msg.sender,medDesc:description,name:_name});\r\n        medProd[_medId].del[medProd[_medId].numRetail]=newRetail;\r\n        medProd[_medId].numRetail++;\r\n        return description;\r\n    }\r\n    function medInfo(uint256 _medId) view public returns(string memory)\r\n    {\r\n        string memory info=\"Medicine name: \";\r\n        info=concatenate(info,medProd[_medId].medName);\r\n        info=concatenate(info,\"\\n\");\r\n        info=concatenate(info,\"MRP: \");\r\n        info=concatenate(info,medProd[_medId].mrp);\r\n        info=concatenate(info,\"\\n\");\r\n        info=concatenate(info,\"Manufacture Date: \");\r\n        info=concatenate(info,medProd[_medId].manuDate);\r\n        info=concatenate(info,\"\\n\");\r\n        info=concatenate(info,\"Expiry: \");\r\n        info=concatenate(info,medProd[_medId].expiry);\r\n        info=concatenate(info,\"\\n\");\r\n        info=concatenate(info,\"\\n\");\r\n        info=concatenate(info,\"Retailers Details \\n\");\r\n        for(uint256 i=0;i<medProd[_medId].numRetail;i++)\r\n        {\r\n            info=concatenate(info,\"\\n\");\r\n            info=concatenate(info,\"\\n\");\r\n            info=concatenate(info,medProd[_medId].del[i].medDesc);\r\n        }\r\n        return info;\r\n    }\r\n}",
  "sourcePath": "E:/COVIDHACK/contracts/MedProduct.sol",
  "compiler": {
    "name": "solc",
    "version": "0.5.0+commit.1d4f565a.Emscripten.clang"
  },
  "schemaVersion": "3.0.1",
  "updatedAt": "2021-07-14T09:49:05.323Z",
  "devdoc": {
    "methods": {}
  },
  "userdoc": {
    "methods": {}
  }
}